:020000040800F2
:100000000050002091110008FD030008FF030008C4
:100010008D1100088D1100088D11000800000000EE
:100020000000000000000000000000008F11000828
:100030008F11000800000000FF040008E903000819
:100040008D1100088D1100088D1100088D11000818
:100050008D1100088D1100088D1100088D11000808
:100060008D1100088D1100088D1100088D110008F8
:100070008D1100088D1100088D1100088D110008E8
:100080008D1100088D1100088D1100088D110008D8
:100090008D1100088D1100088D1100088D110008C8
:1000A0008D1100088D1100088D1100088D110008B8
:1000B0008D1100088D1100088D1100088D110008A8
:1000C0008D1100088D1100088D1100088D11000898
:1000D0008D1100088D1100088D1100088D11000888
:1000E0008D1100088D1100088D1100088D11000878
:1000F0008D1100088D1100088D1100088D11000868
:100100008D1100088D1100088D1100088D11000857
:100110008D1100088D1100088D1100088D11000847
:100120008D1100088D1100088D1100088D11000837
:100130008D1100088D1100088D1100088D11000827
:100140008D1100088D1100088D1100088D11000817
:1001500010B50B4801F098FA00F066FD014648B969
:10016000084801F091FA642400F03AF8204600F0C3
:10017000FFFCF9E7044801F001FA0C24F4E700BFA2
:100180006022000863220008682200081FB50F4C97
:1001900000BF013CFCD100F029F822464FF4007169
:1001A0000B4800F0DFFA78B94FF480630122CDE903
:1001B0000132084B084A009310212346074800F0FB
:1001C0008DFA08B900F0F2FAFEE700BF40420F00D6
:1001D00070000020F402002051010008700200208D
:1001E0002021014800F04CBF0008014038B5EFF372
:1001F0001083012383F310882A4D00F0F9FE40F2AA
:10020000023000F0AAFF202300222846032100F03C
:1002100005FE2021284600F031FF40F20230224C3A
:1002200000F09BFF4FF4407000F097FF40F29130D8
:1002300000F093FF204600F067FF0C2302222846BF
:10024000032100F0EBFD20464FF4E13100F022FFE6
:100250002046082100F032FF2046002100F037FF41
:100260002046002100F039FF2046002100F041FF28
:100270000C21204600F037FF204600F040FF0B49DC
:10028000642000F0D9FF00F0F5FF00F0FBFFFF2134
:10029000FE2000F0FFFFFE21FF2000F0FBFF00200A
:1002A00038BD00BF000801400044004000A24A04DD
:1002B00030B5EFF31081012383F310880C4B00312C
:1002C0001A6818BF01210AB90A4A1A600A4D1A6849
:1002D00000F580642D681444A54226BF801818607C
:1002E0000022EFF3108381F31088104630BD00BF69
:1002F000F40600205C0C0020000000084FF0FF30E6
:1003000070474FF4005300204B6070470120704746
:10031000002070470228F8B50E46144613DD00F0A1
:10032000CDFF052303604FF0FF300BE0384600F0AF
:10033000FBFEC0B20D2808BF0A20013D3070002D21
:10034000F4D12046F8BD1546004FF8E700440040C0
:100350000228F8B50D46144612DC0D4E8F18AF4238
:1003600001D16000F8BD2B780A2B03D10D21304656
:1003700000F0CFFE15F8011B304600F0CAFEEEE794
:1003800000F09CFF052303604FF0FF30EAE700BF59
:100390000044004008B500F0E3F818B1836E0BB1DB
:1003A000C06E9847FEE7000010B50446044B021DDE
:1003B0009A6000F07FFF2046BDE8104000F06EB864
:1003C000F806002008B5064B1A6842B1596004319E
:1003D000996000F06FFF4FF08052024B1A6008BD29
:1003E000F806002004ED00E008B500F0B1F800F0D8
:1003F00087FBBDE80840012000F0D0B9FEE7FEE72A
:1004000038B5044621F003004FF0807140F8041C19
:100410001E494FF0EE3540F8081C4FF0CC314FF03C
:10042000333C40E904154FF022314FF0113E40E9D2
:10043000061C4FF0BB3500216FF0020C40E9081E8E
:1004400040E90A5C4FF0AA3E4FF099354FF0883CE6
:1004500040E90C5E4FF077354FF0663E40E90E5CA8
:100460004FF0553540E9105E4FF0443540F8445D9B
:100470002060C4E91A23201D602201F01CF8044BFF
:10048000A360044BE360044B236138BD950300086F
:10049000242400084424000804240008012181F3D6
:1004A00010882649096881F3088825490860486052
:1004B0008A68244B1A60016881F309880221EFF3EE
:1004C00014820A4382F3148804B0F0BCA046A94603
:1004D000B246BB4688B0F0BC09B00FBC84468E461D
:1004E00004B485B006BC03B006B485B003BC03B049
:1004F000002283F3008882F310880CBD00BF012026
:1005000080F3108810484FF0006101600C480168CA
:10051000426891420DD0EFF3098323E9F04F0B605D
:1005200002608468074B1C601368B3E8F04F83F3E4
:100530000988002080F31088704700BF0000000881
:10054000F80600200C00002004ED00E0FEE70000AB
:10055000024A136801331360704700BF040700208C
:10056000034B1B6813B9034B186870470020704792
:10057000040700200C07002070B5F8B1F1B1026843
:10058000134614462BB193F8646091F86450AE4260
:1005900011D99A4208D101600020C1E91C020AB9B0
:1005A000002000E0116770BDC1E91C436167002BAA
:1005B000F6D01967F4E71C465B6FE3E7C920F2E762
:1005C00050B1036833B1596F0022016001B10A676D
:1005D000C3E91C22184670470346FBE730B5E8B173
:1005E0000468ECB1224625469142536F11D19442E2
:1005F00009D103600BB1002119670023C2E91C3344
:100600001346184630BD6B67536F002BF5D01D673E
:10061000F3E715461A46002BE6D1F2E70346F0E76A
:100620002346EEE768B103684BB193F864208A4231
:1006300007D85A6F026012B1002111675967184636
:1006400070470023FBE70000F8B5214B1B7813B37C
:10065000EFF31087012383F310881E4E00373468B0
:1006600018BF012794F87830012B03D094F880301C
:10067000012B11D11848FFF7A3FF00238442014644
:1006800080F8783003D030602046FFF79BFEEFF310
:10069000108387F31088F8BD012894F8641013D1F3
:1006A00009B2C9B20C48FFF7BDFF05460028EED0DD
:1006B00021460948FFF760FF0023AC4285F87830F7
:1006C000E5D035602946DFE70029E0D00139E7E7CA
:1006D000080700200C07002094070020F8B58E467C
:1006E000DDE906750446B8B3B2B3AFB3A5B30026CF
:1006F00025F00305043D80F8786080F864E0C0E9E7
:100700001C66C667C0E91A237919FFF779FEEFF373
:100710001085012383F310881048AD1B214618BFB4
:100720000125FFF729FF044630B1EFF3108385F36D
:100730001088CC242046F8BDEFF3108385F3108891
:10074000074B1B78012BF5D1FFF70AFF0028F1D0EA
:100750002046FFF779FFEDE7C924EBE79407002077
:10076000080700201FB50023074C2360074C2360B7
:10077000074C2370CDE901120090064AFF2106487C
:10078000FFF7ACFF04B010BD0C0700209407002059
:10079000080700204D05000810070020024A1368D2
:1007A000013B1360FFF750BF04070020012208B58A
:1007B000064BFF2106481A70FFF734FF28B1054B9E
:1007C0001860BDE80840FFF7EFBD08BD080700202E
:1007D000940700200C07002038B50446C0B1EFF3A1
:1007E0001085012383F310880223016881F8793092
:1007F00000234068CB67FFF7F1FE21680548FFF74B
:10080000BBFEEFF31083003518BF012585F3108878
:1008100038BD00BF9407002028B100234360037255
:10082000036018467047C920704700002DE9F04763
:10083000074600283FD000264FF001084FF0CA09B4
:10084000DFF878A0EFF3108588F31088003538467C
:1008500018BF0125FFF7B4FE044638B380F879903D
:1008600001465046FFF788FE70B1EFF3108385F321
:100870001088CC242EB1FFF773FE10B10020FFF7D3
:10088000E3FE2046BDE8F087E06F48B100F012F9C2
:1008900028B1EFF3108385F31088CD24EAE7E067F1
:1008A000EFF3108385F310880126CBE7EFF3108375
:1008B00085F31088DEE7C924E3E700BF9407002032
:1008C0002DE9F0430F4687B00546002867D0FFF7B3
:1008D00047FE0446EFF310864FF0010989F31088B4
:1008E000003618BF012638B9EFF3108386F310885D
:1008F000C82007B0BDE8F083686800283FD0A04258
:100900003DD0002F35DB21462846FFF735FE8046D7
:1009100028B1EFF3108386F31088CC20E9E784F840
:10092000789027B31F4B02A8E067CDE900450293FA
:10093000CDF80CD0049700F0A1F840B1214628462C
:10094000FFF74CFECD2084F87880C4F87C80EFF36C
:10095000108386F310880028CBD1FFF775FE94F83A
:1009600079000028C5D12B7A01332B72C1E7E067EB
:10097000EDE7EFF3108386F310880320B9E72B7AB5
:10098000FF2B08D001332B7238B96C60EFF3108362
:1009900086F31088ADE7CB20F8E70020F6E7C92002
:1009A000A7E700BFD9070008F8B5054600284BD0D7
:1009B000FFF7D6FDEFF31086012383F310886B68F1
:1009C000003618BF0126834206D0EFF3108386F36A
:1009D0001088CF242046F8BD2C7A013CE4B22C725A
:1009E00064BB2B686C6023B32846FFF7E9FD014622
:1009F00007461648FFF7C0FD044628B1EFF3108301
:100A000086F31088CC24E5E787F87900F86F6F60EB
:100A100048B90023FB67EFF3108386F310880020AA
:100A2000FFF712FED6E700F045F80028F1D0CD24FC
:100A3000F1E7EFF3108386F31088CBE7EFF3108331
:100A400086F310880024C5E7C924C3E79407002073
:100A500010B578B1EFF31084012383F31088016897
:100A60000548FFF789FDEFF31083003418BF012418
:100A700084F3108810BD00BF94070020A8B103685C
:100A80009BB183688BB1EFF31083012282F310884E
:100A9000074A0033116818BF0123C1601060EFF3EB
:100AA000108283F3108800207047C920704700BF70
:100AB0009C07002070B5F0B1EFF31081012383F3A0
:100AC00010880E4A0031146818BF012123462646BB
:100AD0000BB9CE2007E08342DD6809D10020A34294
:100AE0000CBF1560F560EFF3108381F3108870BDC3
:100AF0001E462B46ECE7C920F9E700BF9C07002003
:100B0000F8B5184B1B7863B30020174A174C1368CD
:100B10002168013313600E460B4602468446864622
:100B20004BB900B12160E2B11368D4680BB15068D1
:100B300098472246F7E7D3E90257013D9D605DB92A
:100B40008B4212BFF7603946012042B1CCF80C301D
:100B5000C3F80CE09C4633461E463B46E0E71A4687
:100B6000F6E7F8BD08070020980700209C07002042
:100B700030B587B00546FFF7F3FC03462DB330B31D
:100B8000EFF31084012282F3108880F87820114A54
:100B9000019002A80292D86701AACDE90325FFF7C8
:100BA0006DFF231C18BF0123044638B1EFF31082F8
:100BB00083F31088CD24204607B030BDEFF31082B8
:100BC00083F31088FFF740FDF5E7C924F3E7C82455
:100BD000F1E700BF510A000808B500210448FFF7FB
:100BE0006FFEC82802BF0122024B1A6008BD00BF79
:100BF000A8070020A4070020002108B50748FFF738
:100C00005FFE014630B1064800F0B8FC6420FFF7F3
:100C1000AFFFFBE70122034B1A60F7E7B4070020A0
:100C2000F3230008A0070020002170B5084688B013
:100C3000FFF746FEC92800F08E805E4800F024FDD4
:100C400001240020FFF7B0FEC92803D05A4800F065
:100C50001BFD01340023594D59482B60FFF7DCFD83
:100C600000287AD0574800F00FFD01345448FFF7B0
:100C7000D3FD002800F08E80534800F005FD0134BC
:100C80004FF4806201210023504D51482B60CDE983
:100C90000121504A102100924F4AFFF71FFD18B161
:100CA0004E4800F0F1FC01346420FFF761FF2B682F
:100CB0001BB94B4800F0E8FC013464214948FFF7B8
:100CC000FFFD0228014603D0474800F057FC0134DD
:100CD0004FF0FF314348FFF7F3FD0328014603D0EF
:100CE000424800F04BFC01344FF0FF313448FFF72D
:100CF000E7FD002856D03E4800F0C6FC01344FF412
:100D000080752F4E013D09D000213046FFF7D8FDF8
:100D10000028F7D0374800F0B7FC013400212848FC
:100D2000FFF7CEFDCB2803D0334800F0ADFC0134F3
:100D30002348FFF77BFD18B1304800F0A5FC0134D3
:100D40002848FFF773FD18B12D4800F09DFC0134D1
:100D5000204608B070BD002473E72A4BCDE904306B
:100D6000642304A80693FFF789FE58B1264800F0D3
:100D70008BFC01341248FFF759FD00283FF476AF91
:100D8000224870E7C820FFF7F3FE2B68012BF1D053
:100D90001F48ECE71348FFF73FFD00283FF470AF12
:100DA0001C486AE70648FFF7FFFD0028A7D01A484D
:100DB000A2E700BF7322000884220008A4070020D5
:100DC000A807002095220008F2220008A0070020B2
:100DD000C007002044080020F90B00082A2300085F
:100DE00047230008B4070020572300085F230008AA
:100DF000722300089A230008AF230008C7230008C5
:100E0000DD230008D90B0008B0220008DD2200080D
:100E1000C82200080E230008862300082DE9F043AD
:100E20004FF6E07796469C460268436800254FF0EF
:100E30000F084CFA05F4E40719D5072DACB28BBFA7
:100E40003C4616461E46A40098BFA4B208FA04F910
:100E500026EA090604F102090EFA09F901FA04F476
:100E600049EA04043443082D2CBF234622460135A9
:100E70000437102DBFB2DCD102604360BDE8F083BF
:100E8000024A136843F080731360704700100240F9
:100E9000062822D8DFE800F004090E13181A1C00F7
:100EA0000F4B1868C0F3406070470D4B1868C0F3D3
:100EB000C06070470A4B1868C0F340707047084B19
:100EC0001868C0F340407047054B02E0054B00E056
:100ED000054B1868C0F3400070470020704700BF02
:100EE000001002402010024024100240024608B5C3
:100EF0001046FFF7CDFF0028FAD008BD06281FD8FE
:100F0000DFE800F004060B1015171900FFF7B8BF53
:100F10000C4A136843F0806311E00A4A136843F0F7
:100F200080530CE0074A136843F4803307E0054A16
:100F300002E0054A00E0054A136843F0010313602C
:100F4000704700BF001002402010024024100240F1
:100F5000034A136823F0030318431060704700BF6F
:100F600004100240034A136823F4701343EA8040DC
:100F70001060704704100240034A136823F4803362
:100F800043EA00401060704704100240034A1368AF
:100F900023F4003343EA40401060704704100240DD
:100FA000034A136823F4404343EA803010607047DB
:100FB00004100240034A136823F4605343EAC0203C
:100FC0001060704704100240034A136823F4E06382
:100FD00043EA00201060704704100240034A13687F
:100FE00023F0F00343EA0010106070470410024041
:100FF00008B50420FFF782FF0420FFF777FF0020E9
:10100000FFF7A6FF0320FFF779FF0320FFF76EFF2E
:101010000120FFF79DFF0020FFF7E0FF0320FFF70F
:10102000BFFF0420FFF7D0FF0020FFF7C3FF02201F
:1010300000F0A2F80720FFF795FF0120FFF79CFFC3
:101040000020FFF7A3FFFFF71BFF0020FFF74EFF75
:101050000220FFF77DFF044B044A05491360054A4F
:101060001160054A136008BD00A24A040000002078
:101070000051250204000020080000200161704793
:10108000C36803EA010221EA030141EA0241016166
:1010900070470000064A074B90421B6804BF064B8E
:1010A0001B6801EB43034900B3FBF1F38360704716
:1010B000003801400400002008000020C36808290F
:1010C0000CBF23F4805343F48053C360704703691B
:1010D00023F44053194301617047C36823F4C0638C
:1010E0001943C1607047C36823F00C031943C16002
:1010F0007047436923F44073194341617047C368E3
:1011000043F40053C3607047C36823F40053C360C3
:10111000704738B504460D4600F017F829462046BA
:10112000BDE8384000F009B810B5044600F011F8E9
:101130002046BDE8104000F004B8C1F3080141604A
:1011400070474068C0F30800704703681B06FCD571
:10115000704703689B06FCD57047430903F1804341
:1011600003F504331A6800F01F00012101FA00F0B2
:101170001043186070470000034A136823F0070308
:1011800018431060704700BF00200240FEE7704720
:10119000184C1949194800225318834203D2135995
:1011A00053500432F8E7164A0021934202D21960E4
:1011B0000433FAE7134A144C1368144D43F40073D4
:1011C0001360AC4203D254F8043B9847F9E7104C43
:1011D000104DAC4203D254F8043B9847F9E7FEF7B0
:1011E000D5FF0D4C0D4DAC4203D254F8043B98474B
:1011F000F9E700BF9C2400080000002070000020D8
:101200005C0C002014ED00E09C2400089C240008E5
:101210009C2400089C2400089C2400089C240008AE
:10122000044A00F00400136823F00403184310601C
:10123000704700BF10E000E0B1FBF0F108B50A4BC9
:1012400099420ED8094B99428ABF00200420C90850
:10125000FFF7E6FF064B013921F07F4119600120BD
:1012600008BD002008BD00BFF7FFFF07FEFFFF001D
:1012700014E000E0024A136843F002031360704771
:1012800010E000E0024A136843F001031360704766
:1012900010E000E0432893BF00F16040044B00F0F1
:1012A0000F0000F564408CBFC1540170704700BF4F
:1012B00014ED00E0BFF35F8F70470000014B18682A
:1012C000704700BF0C000020002310B50446C0E9A1
:1012D0000033836081814366C281C0E90433836146
:1012E000194608225C3000F0E6F8054B2462636280
:1012F000044BA362044BE362044B236310BD00BFA5
:10130000B9160008DB160008131700083717000885
:10131000014900F0AFB800BF111A000870B5682588
:101320004A1E55430E4605F1740100F0CDF80446FF
:1013300040B10021C0E900160C30A06005F1680240
:1013400000F0B9F8204670BD014800F0B2B800BF07
:10135000540C0020014800F0ADB800BF540C002030
:10136000014800F0A6B800BF4F0C0020014800F073
:10137000A1B800BF4F0C002010B50446FFF7F0FFE6
:10138000A3691BB1BDE81040FFF7F0BFC4E91233F9
:101390002365134B134A1B68A262A34208BF0123B3
:1013A000204608BFA36100F01FF86060204600F0EF
:1013B0001BF8A060204600F017F80022E06004212E
:1013C0006068FFF781FF01220921A068FFF77CFF19
:1013D00002221221E068FFF777FF0123A361D1E722
:1013E0006424000811130008F8B50746FFF7ACFFA6
:1013F0001E4B1E68B36913B93046FFF7BDFF483670
:10140000D6E90134013B03D533680BB33668F7E7FF
:10141000B4F90C50D5B9164B04F15800E360656679
:1014200000F046F8FFF796FF2560C4E90155C4E9CE
:101430000455A5610822294604F15C0000F03BF840
:10144000C4E90D55C4E912552046F8BD6834D9E702
:1014500004213846FFF762FF044630600028D5D1EA
:10146000FFF778FF0C233B60EEE700BF6424000821
:101470000100FFFF2DE9F84380468946002600F170
:10148000480414B93046BDE8F883D4E90175013F3A
:1014900001D52468F5E7AB89012B07D9B5F90E30E2
:1014A000013303D029464046C84706436835EEE776
:1014B00070477047704703460244934200D170471B
:1014C00003F8011BF9E70000F8B5CD1C25F0030572
:1014D00008350C2D38BF0C25002D064601DBA9422E
:1014E00003D90C2333600020F8BD00F043FB2149F1
:1014F0000A6814469CB9204F3B6823B92146304600
:1015000000F0CAF838602946304600F0C5F8431CA0
:1015100023D10C233046336000F032FBE3E723682D
:101520005B1B17D40B2B03D923601C44256004E0FC
:101530006368A2420CBF0B605360304600F020FB92
:1015400004F10B00231D20F00700C21ACCD01B1A97
:10155000A350C9E722466468CCE7C41C24F0030406
:10156000A042E3D0211A304600F096F80130DDD1D8
:10157000CFE700BF440C0020480C00200FB40A4BFA
:1015800013B51C6824B1A36913B92046FFF7F4FE14
:1015900005AB049AA1682046019300F06BFB02B0F2
:1015A000BDE8104004B070470C00002070B50E4636
:1015B000054618B183690BB9FFF7DEFEAB69AC686D
:1015C00013B92846FFF7D8FE2C4B9C4220D16C68FB
:1015D000636EDB0705D4A389980502D4A06DFFF7DD
:1015E00068FFA38919071DD52369DBB1013EA368F4
:1015F00016F8011F013BA36039BB002B38DA2246E5
:101600000A21284600F09CF8013011D00A2511E08B
:101610001B4B9C4201D1AC68DAE71A4B9C4208BFD5
:10162000EC68D5E72146284600F0EEF80028DDD02A
:101630004FF0FF35636EDA0705D4A3899B0502D40A
:10164000A06DFFF737FF284670BD002B04DAA269B2
:101650009A4206DC0A2904D023685A1C22601970B9
:10166000C5E72246284600F06BF80130BFD1DFE71E
:101670000A2523685A1C22601D70DBE72424000819
:101680004424000804240008024B01461868FFF7B0
:101690008DBF00BF0C00002038B50023054C054667
:1016A00008462360FEF704FE431C02D1236803B101
:1016B0002B6038BD580C002010B50C46B1F90E1047
:1016C00000F08CFD0028ABBF636DA3891B1823F4C9
:1016D0008053ACBF6365A38110BD2DE9F0411F4667
:1016E0008B890546DB050C46164605D502230022EC
:1016F000B1F90E1000F0C8F9A389324623F48053E3
:10170000A381B4F90E103B462846BDE8F04100F035
:1017100069B810B50C46B1F90E1000F0B5F9431CCC
:10172000A38915BF606523F4805343F48053A381DC
:1017300018BFA38110BDB1F90E1000F0D3B800009E
:10174000F8B50E461446054618B183690BB9FFF784
:1017500013FE214B9C422BD16C68A369A360A38923
:101760001A072FD523696BB323692068F6B2C01A14
:1017700063693746834204DC2146284600F048F975
:1017800030BBA3680130013BA36023685A1C226070
:101790001E706369834204D0A389DB0706D50A2E35
:1017A00004D12146284600F033F988B93846F8BDFF
:1017B0000A4B9C4201D1AC68CFE7094B9C4208BF61
:1017C000EC68CAE72146284600F01EF80028CBD076
:1017D0004FF0FF37EAE700BF242400084424000844
:1017E0000424000838B50546084611460022054C79
:1017F00022601A46FEF7ACFD431C02D1236803B1F8
:101800002B6038BD580C0020324B70B51D68064661
:101810000C4625B1AB6913B92846FFF7ADFD2E4B39
:101820009C420FD16C68B4F90C309AB215072CD4D5
:10183000D00611D40922326043F04003A3814FF057
:10184000FF303EE0254B9C4201D1AC68EBE7244BD6
:101850009C4208BFEC68E6E7510712D5616B41B1C5
:1018600004F14403994202D0304600F08FF900237E
:101870006363A38923F02403A381002363602369A6
:101880002360A38943F00803A38123694BB9A3898B
:1018900003F42073B3F5007F03D02146304600F0F7
:1018A00029F9A28912F001030CD00023A360636917
:1018B0005B42A361236953B9B4F90C3013F0800083
:1018C000BAD170BD920758BF6369A360F2E70020E8
:1018D000F7E700BF0C00002024240008442400087F
:1018E0000424000838B50023054C0546084623604B
:1018F000FEF704FD431C02D1236803B12B6038BD01
:10190000580C00208A892DE9F041054610070C4645
:1019100058D44B68002B05DC0B6C002B02DC00203C
:10192000BDE8F081E66A002EF9D0002312F480525F
:101930002F682B6032D0606DA3895A0705D5636884
:10194000C01A636B0BB1236CC01A00230246E66A0F
:10195000216A2846B047431CA38906D129681D295E
:1019600049D82A4ACA40D60745D500226260226972
:10197000D904226004D5421C01D12B6803B96065EB
:10198000616B2F600029CAD004F14403994202D050
:10199000284600F0FBF800206063C1E7216A0123BC
:1019A0002846B047411CC7D12B68002BC4D01D2B43
:1019B00001D0162B01D12F60B1E7A38943F040037A
:1019C000A381ADE70F69002FA9D0930718BF0023AB
:1019D0000E6808BF4B69A6EB07080F608B60B8F173
:1019E000000F9CDD43463A46216A2846A66AB04766
:1019F000002806DCA38943F04003A3814FF0FF30A9
:101A00008EE70744A8EB0008E9E700BF010040208B
:101A100038B50B6905460C4613B90025284638BD74
:101A200018B183690BB9FFF7A7FC144B9C421BD17B
:101A30006C68B4F90C30002BEFD0626ED00704D480
:101A4000990502D4A06DFFF734FD28462146FFF723
:101A500059FF636E0546DA07E0D4A3899B05DDD400
:101A6000A06DFFF727FDD9E7054B9C4201D1AC687B
:101A7000DFE7044B9C4208BFEC68DAE72424000847
:101A8000442400080424000838B5054608461146D9
:101A90000022054C22601A46FEF73AFC431C02D194
:101AA000236803B12B6038BD580C002070B50E467A
:101AB000B1F90E1096B0002914461D4607DA00232E
:101AC0002B60B3891A0610D44FF480630EE06A4687
:101AD00000F096FB0028F2DB019A02F47042A2F5B6
:101AE00000535A425A412A60EEE740230020236007
:101AF00016B070BD8B8973B59D0706460C4607D599
:101B000004F14703236023610123636102B070BDC8
:101B100001AB6A46FFF7CAFF009905463046FFF75A
:101B2000D3FC48B9B4F90C309A05EFD423F0030381
:101B300043F00203A381E3E70D4BB362A389206066
:101B400043F08003A381009B20616361019B5BB133
:101B5000B4F90E10304600F065FB28B1A38923F0DC
:101B6000030343F00103A381A3891D43A581CDE7AE
:101B7000111300080148FFF79CBC00BF500C002067
:101B80000148FFF797BC00BF500C002038B5054650
:101B9000002943D051F8043C0C1F002BB8BFE418B7
:101BA000FFF7E8FF1E4A1368104633B963601460FC
:101BB0002846BDE83840FFF7E3BFA3420BD92168B0
:101BC0006218934201BF1A685B6852182260636012
:101BD0000460EDE713465A680AB1A242FAD91968BF
:101BE0005818A0420BD1206801445818824219604D
:101BF000DED110685268014419605A60D8E702D9F2
:101C00000C232B60D4E7206821188A4201BF116899
:101C100052680918216062605C60C9E738BD00BF86
:101C2000440C0020936810B4013B002B936007DA4A
:101C30009469A34201DB0A2902D110BCFFF780BDE1
:101C40001368581C10601970084610BC7047F8B52E
:101C500006460F461446D518AC4201D1002007E0D5
:101C60003A4614F8011B3046FFF7DCFF431CF3D162
:101C7000F8BD00002DE9F04F0D469DB014461E46FC
:101C8000074618B183690BB9FFF776FB854B9D4278
:101C90001BD17D686B6ED90705D4AB899A0502D438
:101CA000A86DFFF706FCAB891B0701D52B69EBB9C3
:101CB00029463846FFF7A8FDC0B16B6ED8070ED590
:101CC0004FF0FF301DB0BDE8F08F774B9D4201D142
:101CD000BD68DFE7754B9D4208BFFD68DAE7AB8959
:101CE0009905EDD4A86DFFF7E5FBE9E7002309931B
:101CF00020238DF8293030234FF0010ADFF8B0910E
:101D00008DF82A30039623461E4613F8012B0AB19C
:101D1000252AF9D1B6EB040B0BD05B4622462946A7
:101D20003846FFF794FF013000F0A380099B5B4425
:101D300009933378002B00F09C8000234FF0FF3292
:101D4000CDE905230136049307938DF853301A9398
:101D50003446052214F8011B554800F073FA049B21
:101D6000C0B9DA0644BF20228DF85320180744BFBB
:101D70002B228DF8532032782A2A13D034460020A3
:101D80000A26079A214611F8013B303B092B4BD913
:101D900070B914E0A0EB09000AFA00F018430490AF
:101DA0002646D5E7039A111D12680391002A01DB2C
:101DB000079204E0524243F002030792049323780F
:101DC0002E2B0CD163782A2B33D1039B02341A1D9E
:101DD0001B680392002BB8BF4FF0FF330593354EBD
:101DE00003222178304600F02DFA38B14023801BC1
:101DF00003FA00F0049B01340343049314F8011B1D
:101E000006222D488DF8281000F01CFA00283FD03B
:101E10002A4B13BB039B073323F0070308330393B9
:101E2000099B434409936EE706FB023201200C46EE
:101E3000A8E700230A26194601340593204610F826
:101E4000012B303A092A03D9002BC8D00591C6E7E7
:101E500006FB012101230446F0E703AB00932A4669
:101E6000174B04A93846AFF30080B0F1FF3F80461E
:101E7000D6D16B6ED90705D4AB899A0502D4A86D6B
:101E8000FFF718FBAB895B063FF51AAF099819E716
:101E900003AB00932A460A4B04A9384600F088F8A1
:101EA000E3E700BF242400084424000804240008B9
:101EB000682400086E240008722400080000000056
:101EC0004F1C00082DE9F04791461F468A680B69B0
:101ED00006469342B8BF1346C9F8003091F8432034
:101EE0000C46DDF8208012B10133C9F800302368B8
:101EF000990642BFD9F800300233C9F8003025688E
:101F000015F0060507D104F1190AE368D9F8002095
:101F10009B1AAB4229DC94F843302268003318BF87
:101F2000012392062ED404F1430239463046C047BD
:101F3000013021D02368E56803F00603042B18BFA5
:101F40000025D9F800204FF0000908BFAD1AA3689A
:101F5000226908BF25EAE5759342C4BF9B1AED18B4
:101F60001A344D451AD1002008E001235246394663
:101F70003046C047013003D14FF0FF30BDE8F08755
:101F80000135C2E73020E11881F843005A1C94F86B
:101F900045102244023382F84310C4E7012322464D
:101FA00039463046C0470130E6D009F10109D8E78B
:101FB0002DE9F04306460C4601F14300097E85B049
:101FC0006E29984617460C9B00F0BB8024D86329E5
:101FD00039D00AD8002900F0C480582900F0928036
:101FE00004F1420584F8421035E0642901D06929E2
:101FF000F6D125681A6815F0800F02F104012CD083
:1020000012681960002A03DA2D23524284F8433003
:10201000DFF8C0C10A233FE0732900F0A68008D88A
:102020006F2921D07029DBD1226842F02002226082
:1020300003E0752918D07829D2D17822DFF898C129
:1020400084F8452062E01A6804F14205111D196008
:10205000136884F84230012394E0126815F0400FB1
:10206000196018BF12B2CDE7D4F800C01A681CF08E
:10207000800F02F104051D6001D0126803E01CF01E
:10208000400FFAD012886F290CBF08230A23DFF80B
:1020900044C1002184F843106568002DA8BF216861
:1020A000A560A4BF21F0040121600AB9002D46D02B
:1020B0000546B2FBF3F103FB112E1CF80EE0934230
:1020C00005F801ED39D9082B0BD12368DA0708D5BB
:1020D000236962689A42DEBF302305F8013C05F1AE
:1020E000FF35401B2061CDF800803B4603AA214606
:1020F0003046FFF7E7FE013049D14FF0FF3005B021
:10210000BDE8F083DFF8CCC084F845101D68216875
:1021100055F8042B1D600D060BD5CD0744BF41F0CB
:10212000200121601AB9236823F0200323601023C3
:10213000AFE74B0648BF92B2EFE70A46B9E705465C
:10214000C1E71A68D4F800C0151D61691CF0800F42
:102150001D60136801D0196003E01CF0400FFAD035
:102160001980002305462361BDE71A68111D196017
:10217000156800216268284600F064F808B1401B29
:10218000606063682361002384F84330ABE7236910
:102190002A4639463046C0470130AED023689B07F7
:1021A00013D4E068039B9842B8BF1846A7E7012301
:1021B0004A4639463046C04701309ED00135E36873
:1021C000039A9B1AAB42F2DCEBE7002504F11909F4
:1021D000F5E700BF792400088A24000838B50546D1
:1021E000084611460022054C22601A46FEF792F876
:1021F000431C02D1236803B12B6038BD580C00206A
:1022000038B50023064C0546084611462360FEF704
:1022100078F8431C02D1236803B12B6038BD00BF9E
:10222000580C002038B50023054C054608462360AD
:10223000FEF76CF8431C02D1236803B12B6038BD54
:10224000580C002010B5C9B202449042034601D197
:10225000002303E01C7801308C42F6D1184610BDF3
:10226000476F0050617373004661696C28256C7577
:10227000290A0047657420706172616D206661698A
:102280006C65640050757420706172616D206661C8
:10229000696C6564004572726F7220637265617467
:1022A000696E672074657374206D7574657831008C
:1022B0004572726F72207265676973746572696EB8
:1022C000672074696D657200436F6E746578742061
:1022D000636865636B206661696C6564004D757445
:1022E0006578312064656C657465206661696C652C
:1022F00064004572726F72206372656174696E6703
:102300002074657374206D75746578203100457292
:10231000726F72206372656174696E672074657391
:1023200074206D757465782032004572726F72206A
:102330006372656174696E67207465737420746874
:1023400072656164203100546872656164206F7742
:102350006E206661696C004765742025640A005729
:102360006F756C64626C6F636B206572722025649C
:102370000A004572726F722074616B696E67206D1E
:102380007574657831004572726F7220706F737466
:10239000696E67206D75746578004572726F722082
:1023A00067657474696E67206D7574657831004572
:1023B00072726F7220747261636B696E67206F76E0
:1023C0006572666C6F77004572726F722064656C1F
:1023D0006574696E67206D75746578310045727239
:1023E0006F722064656C6574696E67206D757465C5
:1023F0007832004D757465782067657420282564EF
:10240000290A000000000000000000000000000099
:1024100000000000000000000000000000000000BC
:1024200000000000000000000000000000000000AC
:10243000000000000000000000000000000000009C
:10244000000000000000000000000000000000008C
:10245000000000000000000000000000000000007C
:102460000000000010000020232D302B2000686C9D
:102470004C006566674546470030313233343536A7
:1024800037383941424344454600303132333435E0
:0C2490003637383961626364656600000D
:10249C0000127A0000127A0000127A00100000205C
:1024AC000000000024240008442400080424000830
:1024BC000000000000000000000000000000000010
:1024CC000000000000000000000000000000000000
:1024DC0000000000000000000000000000000000F0
:1024EC0000000000000000000000000000000000E0
:1024FC0000000000000000000000000000000000D0
:04000005080011914D
:00000001FF
